:10000000803150290000AD16AD16AD16AD16AD16F7
:10001000AD16AD16AD16AD16AD16AD16AD16AD16C8
:10002000AD16AD16AD16AD16AD16AD16AD16AD16B8
:10003000AD16AD16AD16AD168A060000201DA02423
:1000400044103E1F3E10253CA0060A00201DA0249F
:1000500044103E1F3E1FA01278100D050001201D08
:10006000A02444103E1F3E1F3E10253CA0060A005F
:10007000201DA02444103E1F3E1F3E1FA0127810DA
:100080000D0500000B088B132300951715140000B5
:100090000000891B8B1713087F3903199028200053
:1000A000B400230011082000B5002300120820002E
:1000B000B6003408111E5A2823009A002000350883
:1000C0002300910020003608230092000B088B13B8
:1000D0009517151400000000891B8B17130D140DC4
:1000E0007F39031990282000B40023001108200054
:1000F000B500230012082000B6003408111E7E2827
:1001000023009A00200035082300910020003608C3
:1001100023009200910A0319920A2000422823002A
:10012000803120007A2920308500133084000008B7
:100130000319A8280530F800F701F70B9D28F80BE4
:100140009C282E30F700F70BA328A628800B9A28AE
:1001500008003408083C0319B128B600B30DB60BEB
:10016000AE28210010148E128E1122008E11200054
:100170003408B600B31BBF2822008E122000B31F24
:10018000C42822008E162000B30D22008E15F80D13
:100190002000101C78101018781422008E112000F6
:1001A000B60BBA2808000B088B13230095171514FB
:1001B00000000000891B8B170318072913087F39DB
:1001C0002000B400230011082000B500230012080D
:1001D0002000B6003408111EEB2823009A002000EE
:1001E00035082300910020003608230092000B08F8
:1001F0008B139517151400000000891B8B17200026
:10020000B30B032905292300072928292300130DEF
:10021000140D7F392000B400230011082000B50020
:10022000230012082000B6003408111E15292300EF
:100230009A00200035082300910020003608230092
:100240009200910A0319920A03102000B30BD328DD
:100250000800B41B3E290F30F700330EF7050A30B3
:100260007702031836293030F70738293408F707A2
:100270007708111E392923009A0020000F30B3059A
:100280000A3033020318462930304829B4133408A1
:10029000B3073308111E4A2923009A0020000800E2
:1002A00023009F1515309B0001309C00A6309E0056
:1002B00090309D00210010148E128E1122008E119C
:1002C0002000A701A60123008C018D018E018F0162
:1002D00090012200920191012000A001A1012100C2
:1002E0000E1122000E150330230091000030920001
:1002F00020004228911E7A29230019082000A80016
:100300002808723C031D332A21000E1122000E1111
:100310000A302000B30093209F30B3000830B400AF
:100320000130B500A9200130B3000830B40001301D
:10033000B500A9207808AA000130B3000830B40045
:100340000130B500A9207808AB000130B3000830B7
:10035000B4000130B500A9207808AC000A30B30021
:10036000932021000E1122000E151E302300910053
:100370000030920003100A302000B300D320290877
:10038000B3005730B40029212030111EC5292300A5
:100390009A000D302000111ECB2923009A000A304C
:1003A0002000111ED12923009A0026309100003030
:1003B000920003100B302000B300D3202A08B300B2
:1003C0005730B40029212030111EE42923009A005F
:1003D0000D302000111EEA2923009A000A30200067
:1003E000111EF02923009A002F3091000030920056
:1003F00003100C302000B300D3202B08B30057307B
:10040000B40029212030111E032A23009A000D3048
:100410002000111E092A23009A000A302000111E14
:100420000F2A23009A003830910000309200031008
:100430000D302000B300D3202C08B3005730B40097
:1004400029212030111E222A23009A000D3020007D
:10045000111E282A23009A000A302000111E2E2A7D
:0A04600023009A0020007A296300AF
:020000040001F9
:04000E00C23FFF1ED0
:00000001FF
;PIC16F1789
;CRC=B45D  CREATED="31-8-21 16:19"
